{
  "_format": "hh-sol-artifact-1",
  "contractName": "ZKPVerifier",
  "sourceName": "contracts/verifiers/ZKPVerifier.sol",
  "abi": [
    {
      "anonymous": false,
      "inputs": [
        {
          "indexed": true,
          "internalType": "address",
          "name": "previousOwner",
          "type": "address"
        },
        {
          "indexed": true,
          "internalType": "address",
          "name": "newOwner",
          "type": "address"
        }
      ],
      "name": "OwnershipTransferred",
      "type": "event"
    },
    {
      "inputs": [],
      "name": "getSupportedRequests",
      "outputs": [
        {
          "internalType": "uint64[]",
          "name": "arr",
          "type": "uint64[]"
        }
      ],
      "stateMutability": "view",
      "type": "function"
    },
    {
      "inputs": [
        {
          "internalType": "uint64",
          "name": "requestId",
          "type": "uint64"
        }
      ],
      "name": "getZKPRequest",
      "outputs": [
        {
          "components": [
            {
              "internalType": "uint256",
              "name": "schema",
              "type": "uint256"
            },
            {
              "internalType": "uint256",
              "name": "slotIndex",
              "type": "uint256"
            },
            {
              "internalType": "uint256",
              "name": "operator",
              "type": "uint256"
            },
            {
              "internalType": "uint256[]",
              "name": "value",
              "type": "uint256[]"
            },
            {
              "internalType": "string",
              "name": "circuitId",
              "type": "string"
            }
          ],
          "internalType": "struct ICircuitValidator.CircuitQuery",
          "name": "",
          "type": "tuple"
        }
      ],
      "stateMutability": "view",
      "type": "function"
    },
    {
      "inputs": [],
      "name": "owner",
      "outputs": [
        {
          "internalType": "address",
          "name": "",
          "type": "address"
        }
      ],
      "stateMutability": "view",
      "type": "function"
    },
    {
      "inputs": [
        {
          "internalType": "address",
          "name": "",
          "type": "address"
        },
        {
          "internalType": "uint64",
          "name": "",
          "type": "uint64"
        }
      ],
      "name": "proofs",
      "outputs": [
        {
          "internalType": "bool",
          "name": "",
          "type": "bool"
        }
      ],
      "stateMutability": "view",
      "type": "function"
    },
    {
      "inputs": [],
      "name": "renounceOwnership",
      "outputs": [],
      "stateMutability": "nonpayable",
      "type": "function"
    },
    {
      "inputs": [
        {
          "internalType": "uint64",
          "name": "",
          "type": "uint64"
        }
      ],
      "name": "requestQueries",
      "outputs": [
        {
          "internalType": "uint256",
          "name": "schema",
          "type": "uint256"
        },
        {
          "internalType": "uint256",
          "name": "slotIndex",
          "type": "uint256"
        },
        {
          "internalType": "uint256",
          "name": "operator",
          "type": "uint256"
        },
        {
          "internalType": "string",
          "name": "circuitId",
          "type": "string"
        }
      ],
      "stateMutability": "view",
      "type": "function"
    },
    {
      "inputs": [
        {
          "internalType": "uint64",
          "name": "",
          "type": "uint64"
        }
      ],
      "name": "requestValidators",
      "outputs": [
        {
          "internalType": "contract ICircuitValidator",
          "name": "",
          "type": "address"
        }
      ],
      "stateMutability": "view",
      "type": "function"
    },
    {
      "inputs": [
        {
          "internalType": "uint64",
          "name": "requestId",
          "type": "uint64"
        },
        {
          "internalType": "contract ICircuitValidator",
          "name": "validator",
          "type": "address"
        },
        {
          "components": [
            {
              "internalType": "uint256",
              "name": "schema",
              "type": "uint256"
            },
            {
              "internalType": "uint256",
              "name": "slotIndex",
              "type": "uint256"
            },
            {
              "internalType": "uint256",
              "name": "operator",
              "type": "uint256"
            },
            {
              "internalType": "uint256[]",
              "name": "value",
              "type": "uint256[]"
            },
            {
              "internalType": "string",
              "name": "circuitId",
              "type": "string"
            }
          ],
          "internalType": "struct ICircuitValidator.CircuitQuery",
          "name": "query",
          "type": "tuple"
        }
      ],
      "name": "setZKPRequest",
      "outputs": [
        {
          "internalType": "bool",
          "name": "",
          "type": "bool"
        }
      ],
      "stateMutability": "nonpayable",
      "type": "function"
    },
    {
      "inputs": [
        {
          "internalType": "uint64",
          "name": "requestId",
          "type": "uint64"
        },
        {
          "internalType": "uint256[]",
          "name": "inputs",
          "type": "uint256[]"
        },
        {
          "internalType": "uint256[2]",
          "name": "a",
          "type": "uint256[2]"
        },
        {
          "internalType": "uint256[2][2]",
          "name": "b",
          "type": "uint256[2][2]"
        },
        {
          "internalType": "uint256[2]",
          "name": "c",
          "type": "uint256[2]"
        }
      ],
      "name": "submitZKPResponse",
      "outputs": [
        {
          "internalType": "bool",
          "name": "",
          "type": "bool"
        }
      ],
      "stateMutability": "nonpayable",
      "type": "function"
    },
    {
      "inputs": [
        {
          "internalType": "uint256",
          "name": "",
          "type": "uint256"
        }
      ],
      "name": "supportedRequests",
      "outputs": [
        {
          "internalType": "uint64",
          "name": "",
          "type": "uint64"
        }
      ],
      "stateMutability": "view",
      "type": "function"
    },
    {
      "inputs": [
        {
          "internalType": "address",
          "name": "newOwner",
          "type": "address"
        }
      ],
      "name": "transferOwnership",
      "outputs": [],
      "stateMutability": "nonpayable",
      "type": "function"
    }
  ],
  "bytecode": "0x608060405234801561001057600080fd5b5061001a3361001f565b61006f565b600080546001600160a01b038381166001600160a01b0319831681178455604051919092169283917f8be0079c531659141344cd1fd0a4f28419497f9722a3daafe3b4186f6b6457e09190a35050565b61135a8061007e6000396000f3fe608060405234801561001057600080fd5b50600436106100c95760003560e01c8063b45c0fdf11610081578063f14353261161005b578063f1435326146101d8578063f2fde38b14610204578063fee207e61461021757600080fd5b8063b45c0fdf14610167578063b68967e2146101a5578063c76d0845146101b857600080fd5b80638da5cb5b116100b25780638da5cb5b146100f657806396bf47411461011b578063a87231141461013e57600080fd5b806337ba9523146100ce578063715018a6146100ec575b600080fd5b6100d661022a565b6040516100e39190610ab5565b60405180910390f35b6100f46102b6565b005b6000546001600160a01b03165b6040516001600160a01b0390911681526020016100e3565b61012e610129366004610b20565b6102ca565b6040516100e39493929190610b87565b61010361014c366004610b20565b6003602052600090815260409020546001600160a01b031681565b610195610175366004610bcb565b600160209081526000928352604080842090915290825290205460ff1681565b60405190151581526020016100e3565b6101956101b3366004610d63565b61037d565b6101cb6101c6366004610b20565b6105e2565b6040516100e39190610e69565b6101eb6101e6366004610ec9565b61073d565b60405167ffffffffffffffff90911681526020016100e3565b6100f4610212366004610ee2565b61077b565b610195610225366004610eff565b61080b565b606060048054806020026020016040519081016040528092919081815260200182805480156102ac57602002820191906000526020600020906000905b82829054906101000a900467ffffffffffffffff1667ffffffffffffffff16815260200190600801906020826007010492830192600103820291508084116102675790505b5050505050905090565b6102be610999565b6102c860006109f3565b565b6002602081905260009182526040909120805460018201549282015460048301805492949391926102fa90611027565b80601f016020809104026020016040519081016040528092919081815260200182805461032690611027565b80156103735780601f1061034857610100808354040283529160200191610373565b820191906000526020600020905b81548152906001019060200180831161035657829003601f168201915b5050505050905084565b67ffffffffffffffff85166000908152600360205260408120546001600160a01b03166104175760405162461bcd60e51b815260206004820152602860248201527f76616c696461746f72206973206e6f742073657420666f72207468697320726560448201527f717565737420696400000000000000000000000000000000000000000000000060648201526084015b60405180910390fd5b67ffffffffffffffff861660009081526002602052604081205490036104a45760405162461bcd60e51b8152602060048201526024808201527f7175657279206973206e6f742073657420666f7220746869732072657175657360448201527f7420696400000000000000000000000000000000000000000000000000000000606482015260840161040e565b67ffffffffffffffff861660009081526003602090815260408083205460029092529182902091517f67e1d5040000000000000000000000000000000000000000000000000000000081526001600160a01b03909116916367e1d5049161051691899189918991899190600401611107565b602060405180830381865afa158015610533573d6000803e3d6000fd5b505050506040513d601f19601f8201168201806040525081019061055791906111f4565b6105a35760405162461bcd60e51b815260206004820152601b60248201527f70726f6f6620726573706f6e7365206973206e6f742076616c69640000000000604482015260640161040e565b33600090815260016020818152604080842067ffffffffffffffff8b1685528252909220805460ff191690911790556003905250600195945050505050565b6106146040518060a0016040528060008152602001600081526020016000815260200160608152602001606081525090565b67ffffffffffffffff8216600090815260026020818152604092839020835160a08101855281548152600182015481840152928101548385015260038101805485518185028101850190965280865293949193606086019383018282801561069b57602002820191906000526020600020905b815481526020019060010190808311610687575b505050505081526020016004820180546106b490611027565b80601f01602080910402602001604051908101604052809291908181526020018280546106e090611027565b801561072d5780601f106107025761010080835404028352916020019161072d565b820191906000526020600020905b81548152906001019060200180831161071057829003601f168201915b5050505050815250509050919050565b6004818154811061074d57600080fd5b9060005260206000209060049182820401919006600802915054906101000a900467ffffffffffffffff1681565b610783610999565b6001600160a01b0381166107ff5760405162461bcd60e51b815260206004820152602660248201527f4f776e61626c653a206e6577206f776e657220697320746865207a65726f206160448201527f6464726573730000000000000000000000000000000000000000000000000000606482015260840161040e565b610808816109f3565b50565b6000610815610999565b67ffffffffffffffff84166000908152600360205260409020546001600160a01b031661089b576004805460018101825560008290529081047f8a35acfbc15ff81a39ae7d344fd709f28e8600b4aa8c65c6b64bfe7fe36bd19b01805467ffffffffffffffff80881660086003909516949094026101000a938402930219169190911790555b606082015167ffffffffffffffff8516600090815260026020908152604090912082516108d19360039092019290910190610a55565b5060408083015167ffffffffffffffff861660009081526002602081905292902091820155608083015160049091019061090b9082611264565b5060208083015167ffffffffffffffff8616600090815260029092526040909120600181019190915582518155608083015160049091019061094d9082611264565b505067ffffffffffffffff8316600090815260036020526040902080546001600160a01b03841673ffffffffffffffffffffffffffffffffffffffff1990911617905560019392505050565b6000546001600160a01b031633146102c85760405162461bcd60e51b815260206004820181905260248201527f4f776e61626c653a2063616c6c6572206973206e6f7420746865206f776e6572604482015260640161040e565b600080546001600160a01b0383811673ffffffffffffffffffffffffffffffffffffffff19831681178455604051919092169283917f8be0079c531659141344cd1fd0a4f28419497f9722a3daafe3b4186f6b6457e09190a35050565b505050565b828054828255906000526020600020908101928215610a90579160200282015b82811115610a90578251825591602001919060010190610a75565b50610a9c929150610aa0565b5090565b5b80821115610a9c5760008155600101610aa1565b6020808252825182820181905260009190848201906040850190845b81811015610af757835167ffffffffffffffff1683529284019291840191600101610ad1565b50909695505050505050565b803567ffffffffffffffff81168114610b1b57600080fd5b919050565b600060208284031215610b3257600080fd5b610b3b82610b03565b9392505050565b60008151808452602060005b82811015610b69578481018201518682018301528101610b4e565b506000858301820152601f909101601f191690930190920192915050565b848152836020820152826040820152608060608201526000610bac6080830184610b42565b9695505050505050565b6001600160a01b038116811461080857600080fd5b60008060408385031215610bde57600080fd5b8235610be981610bb6565b9150610bf760208401610b03565b90509250929050565b634e487b7160e01b600052604160045260246000fd5b60405160a0810167ffffffffffffffff81118282101715610c3957610c39610c00565b60405290565b6040805190810167ffffffffffffffff81118282101715610c3957610c39610c00565b604051601f8201601f1916810167ffffffffffffffff81118282101715610c8b57610c8b610c00565b604052919050565b600082601f830112610ca457600080fd5b8135602067ffffffffffffffff821115610cc057610cc0610c00565b8160051b610ccf828201610c62565b9283528481018201928281019087851115610ce957600080fd5b83870192505b84831015610d0857823582529183019190830190610cef565b979650505050505050565b600082601f830112610d2457600080fd5b610d2c610c3f565b806040840185811115610d3e57600080fd5b845b81811015610d58578035845260209384019301610d40565b509095945050505050565b60008060008060006101408688031215610d7c57600080fd5b610d8586610b03565b945060208087013567ffffffffffffffff811115610da257600080fd5b610dae89828a01610c93565b9550506040610dbf89828a01610d13565b945088609f890112610dd057600080fd5b610dd8610c3f565b806101008a018b811115610deb57600080fd5b60808b015b81811015610e0f57610e028d82610d13565b8452928501928401610df0565b50819650610e1d8c82610d13565b955050505050509295509295909350565b600081518084526020808501945080840160005b83811015610e5e57815187529582019590820190600101610e42565b509495945050505050565b602081528151602082015260208201516040820152604082015160608201526000606083015160a06080840152610ea360c0840182610e2e565b90506080840151601f198483030160a0850152610ec08282610b42565b95945050505050565b600060208284031215610edb57600080fd5b5035919050565b600060208284031215610ef457600080fd5b8135610b3b81610bb6565b600080600060608486031215610f1457600080fd5b610f1d84610b03565b9250602080850135610f2e81610bb6565b9250604085013567ffffffffffffffff80821115610f4b57600080fd5b9086019060a08289031215610f5f57600080fd5b610f67610c16565b82358152838301358482015260408301356040820152606083013582811115610f8f57600080fd5b610f9b8a828601610c93565b606083015250608083013582811115610fb357600080fd5b80840193505088601f840112610fc857600080fd5b823582811115610fda57610fda610c00565b610fec601f8201601f19168601610c62565b9250808352898582860101111561100257600080fd5b8085850186850137600085828501015250816080820152809450505050509250925092565b600181811c9082168061103b57607f821691505b60208210810361105b57634e487b7160e01b600052602260045260246000fd5b50919050565b8060005b6002811015611084578151845260209384019390910190600101611065565b50505050565b6000815461109781611027565b8085526020600183811680156110b457600181146110ce576110fc565b60ff1985168884015283151560051b8801830195506110fc565b866000528260002060005b858110156110f45781548a82018601529083019084016110d9565b890184019650505b505050505092915050565b600061014080835261111b81840189610e2e565b9050602061112b81850189611061565b606084018760005b600281101561115a57611147838351611061565b6040929092019190830190600101611133565b50505061116a60e0850187611061565b83820361012085015284548252600180860154828401526002860154604084015260a0606084018190526003870180549185018290526000908152838120929160c08601905b808310156111cd57845482529383019391830191908501906111b0565b5085810360808701526111e38160048b0161108a565b9d9c50505050505050505050505050565b60006020828403121561120657600080fd5b81518015158114610b3b57600080fd5b601f821115610a5057600081815260208120601f850160051c8101602086101561123d5750805b601f850160051c820191505b8181101561125c57828155600101611249565b505050505050565b815167ffffffffffffffff81111561127e5761127e610c00565b6112928161128c8454611027565b84611216565b602080601f8311600181146112c757600084156112af5750858301515b600019600386901b1c1916600185901b17855561125c565b600085815260208120601f198616915b828110156112f6578886015182559484019460019091019084016112d7565b50858210156113145787850151600019600388901b60f8161c191681555b5050505050600190811b0190555056fea2646970667358221220212751de07a9bb46bca20ab632c216ab119649c3693478e7f20bc423e9b722df64736f6c63430008110033",
  "linkReferences": {},
  "deployedLinkReferences": {}
}