{
  "_format": "hh-sol-artifact-1",
  "contractName": "ERC20Verifier",
  "sourceName": "contracts/ERC20Verifier.sol",
  "abi": [
    {
      "inputs": [
        {
          "internalType": "string",
          "name": "_name",
          "type": "string"
        },
        {
          "internalType": "string",
          "name": "_symbol",
          "type": "string"
        }
      ],
      "stateMutability": "nonpayable",
      "type": "constructor"
    },
    {
      "anonymous": false,
      "inputs": [
        {
          "indexed": true,
          "internalType": "address",
          "name": "owner",
          "type": "address"
        },
        {
          "indexed": true,
          "internalType": "address",
          "name": "spender",
          "type": "address"
        },
        {
          "indexed": false,
          "internalType": "uint256",
          "name": "value",
          "type": "uint256"
        }
      ],
      "name": "Approval",
      "type": "event"
    },
    {
      "anonymous": false,
      "inputs": [
        {
          "indexed": true,
          "internalType": "address",
          "name": "previousOwner",
          "type": "address"
        },
        {
          "indexed": true,
          "internalType": "address",
          "name": "newOwner",
          "type": "address"
        }
      ],
      "name": "OwnershipTransferred",
      "type": "event"
    },
    {
      "anonymous": false,
      "inputs": [
        {
          "indexed": true,
          "internalType": "address",
          "name": "from",
          "type": "address"
        },
        {
          "indexed": true,
          "internalType": "address",
          "name": "to",
          "type": "address"
        },
        {
          "indexed": false,
          "internalType": "uint256",
          "name": "value",
          "type": "uint256"
        }
      ],
      "name": "Transfer",
      "type": "event"
    },
    {
      "inputs": [],
      "name": "TOKEN_AMOUNT_FOR_AIRDROP_PER_ID",
      "outputs": [
        {
          "internalType": "uint256",
          "name": "",
          "type": "uint256"
        }
      ],
      "stateMutability": "view",
      "type": "function"
    },
    {
      "inputs": [],
      "name": "TRANSFER_REQUEST_ID",
      "outputs": [
        {
          "internalType": "uint64",
          "name": "",
          "type": "uint64"
        }
      ],
      "stateMutability": "view",
      "type": "function"
    },
    {
      "inputs": [
        {
          "internalType": "address",
          "name": "",
          "type": "address"
        }
      ],
      "name": "addressToId",
      "outputs": [
        {
          "internalType": "uint256",
          "name": "",
          "type": "uint256"
        }
      ],
      "stateMutability": "view",
      "type": "function"
    },
    {
      "inputs": [
        {
          "internalType": "address",
          "name": "owner",
          "type": "address"
        },
        {
          "internalType": "address",
          "name": "spender",
          "type": "address"
        }
      ],
      "name": "allowance",
      "outputs": [
        {
          "internalType": "uint256",
          "name": "",
          "type": "uint256"
        }
      ],
      "stateMutability": "view",
      "type": "function"
    },
    {
      "inputs": [
        {
          "internalType": "address",
          "name": "spender",
          "type": "address"
        },
        {
          "internalType": "uint256",
          "name": "amount",
          "type": "uint256"
        }
      ],
      "name": "approve",
      "outputs": [
        {
          "internalType": "bool",
          "name": "",
          "type": "bool"
        }
      ],
      "stateMutability": "nonpayable",
      "type": "function"
    },
    {
      "inputs": [
        {
          "internalType": "address",
          "name": "account",
          "type": "address"
        }
      ],
      "name": "balanceOf",
      "outputs": [
        {
          "internalType": "uint256",
          "name": "",
          "type": "uint256"
        }
      ],
      "stateMutability": "view",
      "type": "function"
    },
    {
      "inputs": [],
      "name": "decimals",
      "outputs": [
        {
          "internalType": "uint8",
          "name": "",
          "type": "uint8"
        }
      ],
      "stateMutability": "view",
      "type": "function"
    },
    {
      "inputs": [
        {
          "internalType": "address",
          "name": "spender",
          "type": "address"
        },
        {
          "internalType": "uint256",
          "name": "subtractedValue",
          "type": "uint256"
        }
      ],
      "name": "decreaseAllowance",
      "outputs": [
        {
          "internalType": "bool",
          "name": "",
          "type": "bool"
        }
      ],
      "stateMutability": "nonpayable",
      "type": "function"
    },
    {
      "inputs": [],
      "name": "getSupportedRequests",
      "outputs": [
        {
          "internalType": "uint64[]",
          "name": "arr",
          "type": "uint64[]"
        }
      ],
      "stateMutability": "view",
      "type": "function"
    },
    {
      "inputs": [
        {
          "internalType": "uint64",
          "name": "requestId",
          "type": "uint64"
        }
      ],
      "name": "getZKPRequest",
      "outputs": [
        {
          "components": [
            {
              "internalType": "uint256",
              "name": "schema",
              "type": "uint256"
            },
            {
              "internalType": "uint256",
              "name": "slotIndex",
              "type": "uint256"
            },
            {
              "internalType": "uint256",
              "name": "operator",
              "type": "uint256"
            },
            {
              "internalType": "uint256[]",
              "name": "value",
              "type": "uint256[]"
            },
            {
              "internalType": "string",
              "name": "circuitId",
              "type": "string"
            }
          ],
          "internalType": "struct ICircuitValidator.CircuitQuery",
          "name": "",
          "type": "tuple"
        }
      ],
      "stateMutability": "view",
      "type": "function"
    },
    {
      "inputs": [
        {
          "internalType": "uint256",
          "name": "",
          "type": "uint256"
        }
      ],
      "name": "idToAddress",
      "outputs": [
        {
          "internalType": "address",
          "name": "",
          "type": "address"
        }
      ],
      "stateMutability": "view",
      "type": "function"
    },
    {
      "inputs": [
        {
          "internalType": "address",
          "name": "spender",
          "type": "address"
        },
        {
          "internalType": "uint256",
          "name": "addedValue",
          "type": "uint256"
        }
      ],
      "name": "increaseAllowance",
      "outputs": [
        {
          "internalType": "bool",
          "name": "",
          "type": "bool"
        }
      ],
      "stateMutability": "nonpayable",
      "type": "function"
    },
    {
      "inputs": [],
      "name": "name",
      "outputs": [
        {
          "internalType": "string",
          "name": "",
          "type": "string"
        }
      ],
      "stateMutability": "view",
      "type": "function"
    },
    {
      "inputs": [],
      "name": "owner",
      "outputs": [
        {
          "internalType": "address",
          "name": "",
          "type": "address"
        }
      ],
      "stateMutability": "view",
      "type": "function"
    },
    {
      "inputs": [
        {
          "internalType": "address",
          "name": "",
          "type": "address"
        },
        {
          "internalType": "uint64",
          "name": "",
          "type": "uint64"
        }
      ],
      "name": "proofs",
      "outputs": [
        {
          "internalType": "bool",
          "name": "",
          "type": "bool"
        }
      ],
      "stateMutability": "view",
      "type": "function"
    },
    {
      "inputs": [],
      "name": "renounceOwnership",
      "outputs": [],
      "stateMutability": "nonpayable",
      "type": "function"
    },
    {
      "inputs": [
        {
          "internalType": "uint64",
          "name": "",
          "type": "uint64"
        }
      ],
      "name": "requestQueries",
      "outputs": [
        {
          "internalType": "uint256",
          "name": "schema",
          "type": "uint256"
        },
        {
          "internalType": "uint256",
          "name": "slotIndex",
          "type": "uint256"
        },
        {
          "internalType": "uint256",
          "name": "operator",
          "type": "uint256"
        },
        {
          "internalType": "string",
          "name": "circuitId",
          "type": "string"
        }
      ],
      "stateMutability": "view",
      "type": "function"
    },
    {
      "inputs": [
        {
          "internalType": "uint64",
          "name": "",
          "type": "uint64"
        }
      ],
      "name": "requestValidators",
      "outputs": [
        {
          "internalType": "contract ICircuitValidator",
          "name": "",
          "type": "address"
        }
      ],
      "stateMutability": "view",
      "type": "function"
    },
    {
      "inputs": [
        {
          "internalType": "uint64",
          "name": "requestId",
          "type": "uint64"
        },
        {
          "internalType": "contract ICircuitValidator",
          "name": "validator",
          "type": "address"
        },
        {
          "components": [
            {
              "internalType": "uint256",
              "name": "schema",
              "type": "uint256"
            },
            {
              "internalType": "uint256",
              "name": "slotIndex",
              "type": "uint256"
            },
            {
              "internalType": "uint256",
              "name": "operator",
              "type": "uint256"
            },
            {
              "internalType": "uint256[]",
              "name": "value",
              "type": "uint256[]"
            },
            {
              "internalType": "string",
              "name": "circuitId",
              "type": "string"
            }
          ],
          "internalType": "struct ICircuitValidator.CircuitQuery",
          "name": "query",
          "type": "tuple"
        }
      ],
      "name": "setZKPRequest",
      "outputs": [
        {
          "internalType": "bool",
          "name": "",
          "type": "bool"
        }
      ],
      "stateMutability": "nonpayable",
      "type": "function"
    },
    {
      "inputs": [
        {
          "internalType": "uint64",
          "name": "requestId",
          "type": "uint64"
        },
        {
          "internalType": "uint256[]",
          "name": "inputs",
          "type": "uint256[]"
        },
        {
          "internalType": "uint256[2]",
          "name": "a",
          "type": "uint256[2]"
        },
        {
          "internalType": "uint256[2][2]",
          "name": "b",
          "type": "uint256[2][2]"
        },
        {
          "internalType": "uint256[2]",
          "name": "c",
          "type": "uint256[2]"
        }
      ],
      "name": "submitZKPResponse",
      "outputs": [
        {
          "internalType": "bool",
          "name": "",
          "type": "bool"
        }
      ],
      "stateMutability": "nonpayable",
      "type": "function"
    },
    {
      "inputs": [
        {
          "internalType": "uint256",
          "name": "",
          "type": "uint256"
        }
      ],
      "name": "supportedRequests",
      "outputs": [
        {
          "internalType": "uint64",
          "name": "",
          "type": "uint64"
        }
      ],
      "stateMutability": "view",
      "type": "function"
    },
    {
      "inputs": [],
      "name": "symbol",
      "outputs": [
        {
          "internalType": "string",
          "name": "",
          "type": "string"
        }
      ],
      "stateMutability": "view",
      "type": "function"
    },
    {
      "inputs": [],
      "name": "totalSupply",
      "outputs": [
        {
          "internalType": "uint256",
          "name": "",
          "type": "uint256"
        }
      ],
      "stateMutability": "view",
      "type": "function"
    },
    {
      "inputs": [
        {
          "internalType": "address",
          "name": "to",
          "type": "address"
        },
        {
          "internalType": "uint256",
          "name": "amount",
          "type": "uint256"
        }
      ],
      "name": "transfer",
      "outputs": [
        {
          "internalType": "bool",
          "name": "",
          "type": "bool"
        }
      ],
      "stateMutability": "nonpayable",
      "type": "function"
    },
    {
      "inputs": [
        {
          "internalType": "address",
          "name": "from",
          "type": "address"
        },
        {
          "internalType": "address",
          "name": "to",
          "type": "address"
        },
        {
          "internalType": "uint256",
          "name": "amount",
          "type": "uint256"
        }
      ],
      "name": "transferFrom",
      "outputs": [
        {
          "internalType": "bool",
          "name": "",
          "type": "bool"
        }
      ],
      "stateMutability": "nonpayable",
      "type": "function"
    },
    {
      "inputs": [
        {
          "internalType": "address",
          "name": "newOwner",
          "type": "address"
        }
      ],
      "name": "transferOwnership",
      "outputs": [],
      "stateMutability": "nonpayable",
      "type": "function"
    }
  ],
  "bytecode": "0x6080604052611388600c553480156200001757600080fd5b506040516200259d3803806200259d8339810160408190526200003a9162000199565b818160036200004a838262000292565b50600462000059828262000292565b50505062000076620000706200007e60201b60201c565b62000082565b50506200035e565b3390565b600580546001600160a01b038381166001600160a01b0319831681179093556040519116919082907f8be0079c531659141344cd1fd0a4f28419497f9722a3daafe3b4186f6b6457e090600090a35050565b634e487b7160e01b600052604160045260246000fd5b600082601f830112620000fc57600080fd5b81516001600160401b0380821115620001195762000119620000d4565b604051601f8301601f19908116603f01168101908282118183101715620001445762000144620000d4565b816040528381526020925086838588010111156200016157600080fd5b600091505b8382101562000185578582018301518183018401529082019062000166565b600093810190920192909252949350505050565b60008060408385031215620001ad57600080fd5b82516001600160401b0380821115620001c557600080fd5b620001d386838701620000ea565b93506020850151915080821115620001ea57600080fd5b50620001f985828601620000ea565b9150509250929050565b600181811c908216806200021857607f821691505b6020821081036200023957634e487b7160e01b600052602260045260246000fd5b50919050565b601f8211156200028d57600081815260208120601f850160051c81016020861015620002685750805b601f850160051c820191505b81811015620002895782815560010162000274565b5050505b505050565b81516001600160401b03811115620002ae57620002ae620000d4565b620002c681620002bf845462000203565b846200023f565b602080601f831160018114620002fe5760008415620002e55750858301515b600019600386901b1c1916600185901b17855562000289565b600085815260208120601f198616915b828110156200032f578886015182559484019460019091019084016200030e565b50858210156200034e5787850151600019600388901b60f8161c191681555b5050505050600190811b01905550565b61222f806200036e6000396000f3fe608060405234801561001057600080fd5b50600436106101ae5760003560e01c806395d89b41116100ee578063b68967e211610097578063dd62ed3e11610071578063dd62ed3e146103fa578063f143532614610433578063f2fde38b14610446578063fee207e61461045957600080fd5b8063b68967e2146103a7578063c76d0845146103ba578063cb0e0d7d146103da57600080fd5b8063a8723114116100c8578063a87231141461033d578063a9059cbb14610366578063b45c0fdf1461037957600080fd5b806395d89b41146102ff57806396bf474114610307578063a457c2d71461032a57600080fd5b806337ba95231161015b5780637042f36b116101355780637042f36b146102b257806370a08231146102bb578063715018a6146102e45780638da5cb5b146102ee57600080fd5b806337ba952314610269578063395093511461027e57806363ec508f1461029157600080fd5b806323b872dd1161018c57806323b872dd146102065780632a2d0c4714610219578063313ce5671461025a57600080fd5b806306fdde03146101b3578063095ea7b3146101d157806318160ddd146101f4575b600080fd5b6101bb61046c565b6040516101c891906118cc565b60405180910390f35b6101e46101df3660046118fb565b6104fe565b60405190151581526020016101c8565b6002545b6040519081526020016101c8565b6101e4610214366004611927565b610518565b610242610227366004611968565b600a602052600090815260409020546001600160a01b031681565b6040516001600160a01b0390911681526020016101c8565b604051601281526020016101c8565b61027161053c565b6040516101c89190611981565b6101e461028c3660046118fb565b6105c7565b610299600181565b60405167ffffffffffffffff90911681526020016101c8565b6101f8600c5481565b6101f86102c93660046119cf565b6001600160a01b031660009081526020819052604090205490565b6102ec610606565b005b6005546001600160a01b0316610242565b6101bb61061a565b61031a610315366004611a09565b610629565b6040516101c89493929190611a24565b6101e46103383660046118fb565b6106dc565b61024261034b366004611a09565b6008602052600090815260409020546001600160a01b031681565b6101e46103743660046118fb565b61078b565b6101e4610387366004611a53565b600660209081526000928352604080842090915290825290205460ff1681565b6101e46103b5366004611beb565b610799565b6103cd6103c8366004611a09565b610a43565b6040516101c89190611cf1565b6101f86103e83660046119cf565b600b6020526000908152604090205481565b6101f8610408366004611d51565b6001600160a01b03918216600090815260016020908152604080832093909416825291909152205490565b610299610441366004611968565b610ba1565b6102ec6104543660046119cf565b610bdf565b6101e4610467366004611d8a565b610c6f565b60606003805461047b90611eb2565b80601f01602080910402602001604051908101604052809291908181526020018280546104a790611eb2565b80156104f45780601f106104c9576101008083540402835291602001916104f4565b820191906000526020600020905b8154815290600101906020018083116104d757829003601f168201915b5050505050905090565b60003361050c818585610e00565b60019150505b92915050565b600033610526858285610f58565b610531858585610fea565b506001949350505050565b606060098054806020026020016040519081016040528092919081815260200182805480156104f457602002820191906000526020600020906000905b82829054906101000a900467ffffffffffffffff1667ffffffffffffffff16815260200190600801906020826007010492830192600103820291508084116105795790505050505050905090565b3360008181526001602090815260408083206001600160a01b038716845290915281205490919061050c9082908690610601908790611eec565b610e00565b61060e6111e2565b610618600061123c565b565b60606004805461047b90611eb2565b60076020526000908152604090208054600182015460028301546004840180549394929391929161065990611eb2565b80601f016020809104026020016040519081016040528092919081815260200182805461068590611eb2565b80156106d25780601f106106a7576101008083540402835291602001916106d2565b820191906000526020600020905b8154815290600101906020018083116106b557829003601f168201915b5050505050905084565b3360008181526001602090815260408083206001600160a01b03871684529091528120549091908381101561077e5760405162461bcd60e51b815260206004820152602560248201527f45524332303a2064656372656173656420616c6c6f77616e63652062656c6f7760448201527f207a65726f00000000000000000000000000000000000000000000000000000060648201526084015b60405180910390fd5b6105318286868403610e00565b60003361050c818585610fea565b67ffffffffffffffff85166000908152600860205260408120546001600160a01b031661082e5760405162461bcd60e51b815260206004820152602860248201527f76616c696461746f72206973206e6f742073657420666f72207468697320726560448201527f71756573742069640000000000000000000000000000000000000000000000006064820152608401610775565b67ffffffffffffffff861660009081526007602052604081205490036108bb5760405162461bcd60e51b8152602060048201526024808201527f7175657279206973206e6f742073657420666f7220746869732072657175657360448201527f74206964000000000000000000000000000000000000000000000000000000006064820152608401610775565b67ffffffffffffffff86166000908152600860205260409020546108eb90879087906001600160a01b031661129b565b67ffffffffffffffff861660009081526008602090815260408083205460079092529182902091517f67e1d5040000000000000000000000000000000000000000000000000000000081526001600160a01b03909116916367e1d5049161095d91899189918991899190600401611fad565b602060405180830381865afa15801561097a573d6000803e3d6000fd5b505050506040513d601f19601f8201168201806040525081019061099e919061209a565b6109ea5760405162461bcd60e51b815260206004820152601b60248201527f70726f6f6620726573706f6e7365206973206e6f742076616c696400000000006044820152606401610775565b33600090815260066020908152604080832067ffffffffffffffff8a1684528252808320805460ff191660011790556008909152902054610a3790879087906001600160a01b03166113a0565b50600195945050505050565b610a756040518060a0016040528060008152602001600081526020016000815260200160608152602001606081525090565b67ffffffffffffffff8216600090815260076020908152604091829020825160a081018452815481526001820154818401526002820154818501526003820180548551818602810186019096528086529194929360608601939290830182828015610aff57602002820191906000526020600020905b815481526020019060010190808311610aeb575b50505050508152602001600482018054610b1890611eb2565b80601f0160208091040260200160405190810160405280929190818152602001828054610b4490611eb2565b8015610b915780601f10610b6657610100808354040283529160200191610b91565b820191906000526020600020905b815481529060010190602001808311610b7457829003601f168201915b5050505050815250509050919050565b60098181548110610bb157600080fd5b9060005260206000209060049182820401919006600802915054906101000a900467ffffffffffffffff1681565b610be76111e2565b6001600160a01b038116610c635760405162461bcd60e51b815260206004820152602660248201527f4f776e61626c653a206e6577206f776e657220697320746865207a65726f206160448201527f64647265737300000000000000000000000000000000000000000000000000006064820152608401610775565b610c6c8161123c565b50565b6000610c796111e2565b67ffffffffffffffff84166000908152600860205260409020546001600160a01b0316610cff57600980546001810182556000919091527f6e1540171b6c0c960b71a7020d9f60077f6af931a8bbf590da0223dacf75c7af6004820401805460039092166008026101000a67ffffffffffffffff81810219909316928716029190911790555b606082015167ffffffffffffffff851660009081526007602090815260409091208251610d359360039092019290910190611827565b5060408083015167ffffffffffffffff8616600090815260076020529190912060028101919091556080830151600490910190610d72908261210a565b5060208083015167ffffffffffffffff86166000908152600790925260409091206001810191909155825181556080830151600490910190610db4908261210a565b505067ffffffffffffffff8316600090815260086020526040902080546001600160a01b03841673ffffffffffffffffffffffffffffffffffffffff1990911617905560019392505050565b6001600160a01b038316610e7b5760405162461bcd60e51b8152602060048201526024808201527f45524332303a20617070726f76652066726f6d20746865207a65726f2061646460448201527f72657373000000000000000000000000000000000000000000000000000000006064820152608401610775565b6001600160a01b038216610ef75760405162461bcd60e51b815260206004820152602260248201527f45524332303a20617070726f766520746f20746865207a65726f20616464726560448201527f73730000000000000000000000000000000000000000000000000000000000006064820152608401610775565b6001600160a01b0383811660008181526001602090815260408083209487168084529482529182902085905590518481527f8c5be1e5ebec7d5bd14f71427d1e84f3dd0314c0f7b2291e5b200ac8c7c3b925910160405180910390a3505050565b6001600160a01b038381166000908152600160209081526040808320938616835292905220546000198114610fe45781811015610fd75760405162461bcd60e51b815260206004820152601d60248201527f45524332303a20696e73756666696369656e7420616c6c6f77616e63650000006044820152606401610775565b610fe48484848403610e00565b50505050565b6001600160a01b0383166110665760405162461bcd60e51b815260206004820152602560248201527f45524332303a207472616e736665722066726f6d20746865207a65726f20616460448201527f64726573730000000000000000000000000000000000000000000000000000006064820152608401610775565b6001600160a01b0382166110e25760405162461bcd60e51b815260206004820152602360248201527f45524332303a207472616e7366657220746f20746865207a65726f206164647260448201527f65737300000000000000000000000000000000000000000000000000000000006064820152608401610775565b6110ed838383611529565b6001600160a01b0383166000908152602081905260409020548181101561117c5760405162461bcd60e51b815260206004820152602660248201527f45524332303a207472616e7366657220616d6f756e742065786365656473206260448201527f616c616e636500000000000000000000000000000000000000000000000000006064820152608401610775565b6001600160a01b03848116600081815260208181526040808320878703905593871680835291849020805487019055925185815290927fddf252ad1be2c89b69c2b068fc378daa952ba7f163c4a11628f55a4df523b3ef910160405180910390a3610fe4565b6005546001600160a01b031633146106185760405162461bcd60e51b815260206004820181905260248201527f4f776e61626c653a2063616c6c6572206973206e6f7420746865206f776e65726044820152606401610775565b600580546001600160a01b0383811673ffffffffffffffffffffffffffffffffffffffff19831681179093556040519116919082907f8be0079c531659141344cd1fd0a4f28419497f9722a3daafe3b4186f6b6457e090600090a35050565b600061132083836001600160a01b0316639f442afa6040518163ffffffff1660e01b8152600401602060405180830381865afa1580156112df573d6000803e3d6000fd5b505050506040513d601f19601f8201168201806040525081019061130391906121ca565b81518110611313576113136121e3565b60200260200101516115ce565b9050336001600160a01b03821614610fe45760405162461bcd60e51b815260206004820152602860248201527f6164647265737320696e2070726f6f66206973206e6f7420612073656e64657260448201527f20616464726573730000000000000000000000000000000000000000000000006064820152608401610775565b67ffffffffffffffff831660011480156113c75750336000908152600b6020526040902054155b6114395760405162461bcd60e51b815260206004820152602960248201527f70726f6f662063616e206e6f74206265207375626d6974746564206d6f72652060448201527f7468616e206f6e636500000000000000000000000000000000000000000000006064820152608401610775565b600082826001600160a01b0316639f442afa6040518163ffffffff1660e01b8152600401602060405180830381865afa15801561147a573d6000803e3d6000fd5b505050506040513d601f19601f8201168201806040525081019061149e91906121ca565b815181106114ae576114ae6121e3565b6020908102919091018101516000818152600a9092526040909120549091506001600160a01b0316610fe4576114e633600c54611732565b336000818152600b60209081526040808320859055938252600a905291909120805473ffffffffffffffffffffffffffffffffffffffff19169091179055505050565b6001600160a01b0382166000908152600660209081526040808320600180855292529091205460ff161515146115c9576040805162461bcd60e51b81526020600482015260248101919091527f6f6e6c79206964656e7469746965732077686f2070726f76696465642070726f60448201527f6f662061726520616c6c6f77656420746f207265636569766520746f6b656e736064820152608401610775565b505050565b600061051261172b6117268460008190506008817eff00ff00ff00ff00ff00ff00ff00ff00ff00ff00ff00ff00ff00ff00ff00ff16901b6008827fff00ff00ff00ff00ff00ff00ff00ff00ff00ff00ff00ff00ff00ff00ff00ff0016901c1790506010817dffff0000ffff0000ffff0000ffff0000ffff0000ffff0000ffff0000ffff16901b6010827fffff0000ffff0000ffff0000ffff0000ffff0000ffff0000ffff0000ffff000016901c1790506020817bffffffff00000000ffffffff00000000ffffffff00000000ffffffff16901b6020827fffffffff00000000ffffffff00000000ffffffff00000000ffffffff0000000016901c17905060408177ffffffffffffffff0000000000000000ffffffffffffffff16901b6040827fffffffffffffffff0000000000000000ffffffffffffffff000000000000000016901c179050608081901b608082901c179050919050565b6117fd565b6014015190565b6001600160a01b0382166117885760405162461bcd60e51b815260206004820152601f60248201527f45524332303a206d696e7420746f20746865207a65726f2061646472657373006044820152606401610775565b61179460008383611529565b80600260008282546117a69190611eec565b90915550506001600160a01b038216600081815260208181526040808320805486019055518481527fddf252ad1be2c89b69c2b068fc378daa952ba7f163c4a11628f55a4df523b3ef910160405180910390a35050565b60408051602080825281830190925260609160208201818036833750505060208101929092525090565b828054828255906000526020600020908101928215611862579160200282015b82811115611862578251825591602001919060010190611847565b5061186e929150611872565b5090565b5b8082111561186e5760008155600101611873565b60008151808452602060005b828110156118ae578481018201518682018301528101611893565b506000858301820152601f909101601f191690930190920192915050565b6020815260006118df6020830184611887565b9392505050565b6001600160a01b0381168114610c6c57600080fd5b6000806040838503121561190e57600080fd5b8235611919816118e6565b946020939093013593505050565b60008060006060848603121561193c57600080fd5b8335611947816118e6565b92506020840135611957816118e6565b929592945050506040919091013590565b60006020828403121561197a57600080fd5b5035919050565b6020808252825182820181905260009190848201906040850190845b818110156119c357835167ffffffffffffffff168352928401929184019160010161199d565b50909695505050505050565b6000602082840312156119e157600080fd5b81356118df816118e6565b803567ffffffffffffffff81168114611a0457600080fd5b919050565b600060208284031215611a1b57600080fd5b6118df826119ec565b848152836020820152826040820152608060608201526000611a496080830184611887565b9695505050505050565b60008060408385031215611a6657600080fd5b8235611a71816118e6565b9150611a7f602084016119ec565b90509250929050565b634e487b7160e01b600052604160045260246000fd5b60405160a0810167ffffffffffffffff81118282101715611ac157611ac1611a88565b60405290565b6040805190810167ffffffffffffffff81118282101715611ac157611ac1611a88565b604051601f8201601f1916810167ffffffffffffffff81118282101715611b1357611b13611a88565b604052919050565b600082601f830112611b2c57600080fd5b8135602067ffffffffffffffff821115611b4857611b48611a88565b8160051b611b57828201611aea565b9283528481018201928281019087851115611b7157600080fd5b83870192505b84831015611b9057823582529183019190830190611b77565b979650505050505050565b600082601f830112611bac57600080fd5b611bb4611ac7565b806040840185811115611bc657600080fd5b845b81811015611be0578035845260209384019301611bc8565b509095945050505050565b60008060008060006101408688031215611c0457600080fd5b611c0d866119ec565b945060208087013567ffffffffffffffff811115611c2a57600080fd5b611c3689828a01611b1b565b9550506040611c4789828a01611b9b565b945088609f890112611c5857600080fd5b611c60611ac7565b806101008a018b811115611c7357600080fd5b60808b015b81811015611c9757611c8a8d82611b9b565b8452928501928401611c78565b50819650611ca58c82611b9b565b955050505050509295509295909350565b600081518084526020808501945080840160005b83811015611ce657815187529582019590820190600101611cca565b509495945050505050565b602081528151602082015260208201516040820152604082015160608201526000606083015160a06080840152611d2b60c0840182611cb6565b90506080840151601f198483030160a0850152611d488282611887565b95945050505050565b60008060408385031215611d6457600080fd5b8235611d6f816118e6565b91506020830135611d7f816118e6565b809150509250929050565b600080600060608486031215611d9f57600080fd5b611da8846119ec565b9250602080850135611db9816118e6565b9250604085013567ffffffffffffffff80821115611dd657600080fd5b9086019060a08289031215611dea57600080fd5b611df2611a9e565b82358152838301358482015260408301356040820152606083013582811115611e1a57600080fd5b611e268a828601611b1b565b606083015250608083013582811115611e3e57600080fd5b80840193505088601f840112611e5357600080fd5b823582811115611e6557611e65611a88565b611e77601f8201601f19168601611aea565b92508083528985828601011115611e8d57600080fd5b8085850186850137600085828501015250816080820152809450505050509250925092565b600181811c90821680611ec657607f821691505b602082108103611ee657634e487b7160e01b600052602260045260246000fd5b50919050565b8082018082111561051257634e487b7160e01b600052601160045260246000fd5b8060005b6002811015610fe4578151845260209384019390910190600101611f11565b60008154611f3d81611eb2565b808552602060018381168015611f5a5760018114611f7457611fa2565b60ff1985168884015283151560051b880183019550611fa2565b866000528260002060005b85811015611f9a5781548a8201860152908301908401611f7f565b890184019650505b505050505092915050565b6000610140808352611fc181840189611cb6565b90506020611fd181850189611f0d565b606084018760005b600281101561200057611fed838351611f0d565b6040929092019190830190600101611fd9565b50505061201060e0850187611f0d565b83820361012085015284548252600180860154828401526002860154604084015260a0606084018190526003870180549185018290526000908152838120929160c08601905b808310156120735784548252938301939183019190850190612056565b5085810360808701526120898160048b01611f30565b9d9c50505050505050505050505050565b6000602082840312156120ac57600080fd5b815180151581146118df57600080fd5b601f8211156115c957600081815260208120601f850160051c810160208610156120e35750805b601f850160051c820191505b81811015612102578281556001016120ef565b505050505050565b815167ffffffffffffffff81111561212457612124611a88565b612138816121328454611eb2565b846120bc565b602080601f83116001811461216d57600084156121555750858301515b600019600386901b1c1916600185901b178555612102565b600085815260208120601f198616915b8281101561219c5788860151825594840194600190910190840161217d565b50858210156121ba5787850151600019600388901b60f8161c191681555b5050505050600190811b01905550565b6000602082840312156121dc57600080fd5b5051919050565b634e487b7160e01b600052603260045260246000fdfea2646970667358221220072a13f0522303556deffb3d4fe5c15444267dd8d6573da7bb45a4ff7c551e5564736f6c63430008110033",
  "linkReferences": {},
  "deployedLinkReferences": {}
}